:020000041400E6
:1000000000800020CD010014910100149301001420
:1000100095010014970100149901001400000000DC
:100020000000000000000000000000009B01001420
:100030009D010014000000009F010014A1010014A4
:10004000A3010014A3010014A30100140000000088
:10005000A3010014A3010014A3010014A3010014C0
:10006000418D0010A3010014A3010014A30100148A
:10007000A3010014FD760010A3010014A3010014D5
:10008000A3010014A3010014C1180010A30100145F
:10009000A3010014A3010014A3010014952900106A
:1000A000F52A0010A3010014A3010014A3010014F9
:1000B000A3010014A3010014A3010014A301001460
:1000C000A3010014A3010014A3010014A301001450
:1000D000A3010014A3010014A3010014A301001440
:1000E000A3010014A3010014A3010014A301001430
:1000F00000000000A3010014A3010014A3010014D8
:1001000000000000A3010014A3010014A3010014C7
:10011000A301001460A80114188001102409000034
:100120009C82011400000020000000009C82011449
:1001300000000810000000009C82011400800020D4
:10014000C425000060A8011400C0002000000000C9
:1001500088020014000000105C7D01000000001403
:10016000000000101401000000900110481300006E
:100170000000002000000000000008100000000047
:10018000C4A500200000000000C000200000000006
:10019000FEE7FEE7FEE7FEE7FEE7FEE7FEE7FEE737
:1001A000FEE7FEE710B50B465C1A944204D2441AEF
:1001B000E45843F8044BF7E710BD03461A1A8A4285
:1001C00003D2002243F8042BF8E7704710B572B64B
:1001D0001B4B1C4A1A601C4A5A601C4A4FF0FF33E2
:1001E000136053609360D360136153619361D36173
:1001F00062B6174C174B9C4207D294E803000C34AC
:1002000054F8042CFFF7CEFFF4E7134B9C4206D2C0
:1002100054F8080B54F8041CFFF7CFFFF5E7DFF89C
:100220004400016841F4700101600C4B1A680AB186
:100230000B4A136000F020F800F016F8FEE700BF4C
:10024000003105400010DF10FFF7DF0180E200E021
:100250001401001468010014900100140000001043
:1002600008ED00E088ED00E001B40248844601BCDE
:10027000604700BF211A001001B40248844601BC47
:08028000604700BFB9C900107E
:100288000000000000000000000000000000000066
:100298000000000000000000000000000000000056
:1002A8000000000000000000000000000000000046
:1002B8000000000000000000000000000000000036
:1002C8000000000000000000000000000000000026
:1002D8000000000000000000000000000000000016
:1002E8000000000000000000000000000000000006
:1002F80000000000000000000000000000000000F6
:1003080000000000000000000000000000000000E5
:1003180000000000000000000000000000000000D5
:1003280000000000000000000000000000000000C5
:1003380000000000000000000000000000000000B5
:1003480000000000000000000000000000000000A5
:100358000000000000000000000000000000000095
:100368000000000000000000000000000000000085
:100378000000000000000000000000000000000075
:100388000000000000000000000000000000000065
:1003980000000000002070470020704708B50120C9
:1003A8000321F022022306F03FFA064B04229A6248
:1003B8004FF48062C3F81822A3F5003308225A606C
:1003C800002008BD0010104010B5054B00245C60EB
:1003D80001200321F022052306F026FA204610BD4D
:1003E80000100E401E4B002170B50A4604461868DE
:1003F8001C4E02F070FE054638B3227902234AB13A
:1004080041888288521A92FBF3F30B441B044FF481
:10041800A07209E0C1880289521A92FBF3F3C3F172
:10042800C8035B1A1B04C822B3FBF2F34FF6C07271
:100438001A400D4B1A60637913B9642006F02CFC3E
:100448004FF48063C6F8143203E0074BC6F8140271
:100458001860003518BF01256571002070BD00BF08
:10046800049001100010104000100E4001717047F8
:1004780008B5082000F0B2FF044B036001230371A4
:1004880000234371024B186008BD00BF783B011080
:100498000090011000B52DED028B814208EE103A54
:1004A8000B4628BF034687B0934228BF13460390E4
:1004B800C01A02914043C91A019201FB0101D21AE4
:1004C80002FB021007EE900AF8EE677A17EE900A20
:1004D8000BF0F2FD11F08CFC0CF054F81E2804D837
:1004E800092803D80023059310E01E20DFED1E7AAB
:1004F800B8EE488A28EE278A07EE900AF8EEE77ADF
:1005080028EE278ABCEEC88A8DED058A059BB3F5CF
:100518007A6F88BF4FF47A6305A888BF059306F001
:1005280003F80299019A039803F065FD03F07CFD36
:1005380003A902AA01AB03F06CFD039B8DF81130EF
:10054800029B8DF812300DF11100019B8DF81330CC
:100558000DF112010DF1130205F0BCFF07B0BDEC5F
:10056800028B5DF804FB00BF8FC2753C00B593B0E9
:100578000023069340201023079300F031FF031D4A
:1005880000F14401002223F8022C23F8042C043340
:100598008B42F7D1174B089018681749A023ADF87C
:1005A80024306423ADF8263009AA06AB05F005FE11
:1005B80003230093114B04211B680A4606A800F088
:1005C80033FE06AA0C4909A805F0D0F905A909A81F
:1005D80005F042FA02A903AA04AB03F01AFD02A827
:1005E8000FC8FFF757FF089808B100F0FDFE13B0D9
:1005F8005DF804FB04900110B890011004910110FB
:1006080013B501A80C4606F08FFB019806F092FB83
:10061800A042FAD307F00EF802B010BD13B5044695
:1006280002A8002340F8043D05F068FF20464EF676
:100638006021FFF7E5FF6078034B03EB800005F0CE
:100648005DFF02B010BD00BF4845011037B500245A
:1006580005464470047202A840F8044D05F04EFFA8
:100668002C7003B030BD10B50446FFF7EFFF2046ED
:1006780010BD000073B505460E460024B44217DAD3
:1006880002A8002340F8043D05F038FF4EF660212B
:100698002846FFF7B5FF074B687803EB800005F0A5
:1006A8002DFF28464EF66021FFF7AAFF0134E5E743
:1006B80002B070BD484501101FB5A02200230446B2
:1006C800ADF8082064220393ADF80A20009303A82C
:1006D800611C02AA0DF10A0300F004FE002808DBE1
:1006E800054B0121186801F073F920460421FFF732
:1006F800C1FF04B010BD00BF049101104378072B5F
:1007080001D8FFF78BBF70470129F8B504460E469C
:10071800174651D906F0CAFA054606F08BFF23782A
:10072800012B09D002D3022B22D041E0201D06F074
:10073800FBFA0123237037E055B1201D06F0F4FAC7
:10074800002363702046FFF769FF02232370E1E767
:10075800606806F0EFFA194B9842DBD93B78637072
:1007680020460421FFF786FF2046FFF76FFF23E0AE
:1007780055B963783B7020460421FFF77BFF20467C
:10078800FFF764FF0120F8BD606806F0D3FA0C4B50
:100798009842BFD9201D06F0C7FA63780133DBB24F
:1007A800B34208BF002363702046FFF7A7FFB1E7F5
:1007B8002046FFF74BFFADE70020F8BD60E31600C9
:1007C80040420F0030B5044689B006F06FFA237A2C
:1007D80005460BB34FF4A072ADF81A20C822ADF845
:1007E8001C2007AA0092694A212312688DF8153047
:1007F8000023ADF81630ADF81830019202930DF1D0
:1008080015000DF1160106AA0DF11A0303F09CFE5E
:100818002046FFF7ABFE1FE02278EAB1ADF81630AC
:10082800ADF818304FF4A073ADF81A30C823ADF8FE
:100838001C3007AB0093554B1B6801932122012301
:100848008DF8152002930DF115000DF1160106AA79
:100858000DF11A0303F078FE2378052B00F28D8042
:10086800DFE803F003193159678A002D00F088800A
:10087800201D06F059FA464B08AD1B8845F8043D83
:10088800284605F051FE01232370284600230793CC
:1008980005F034FE74E00DB9257071E0606806F06B
:1008A80049FA3C4B98426BD903F006FC10B101237E
:1008B800637000E06070201D06F036FA2046FFF7EE
:1008C8001DFF02232CE095B920460321FFF7D2FE35
:1008D800201D06F029FA627801232AB908A800F831
:1008E800043D03F031FD00E02372032318E0606843
:1008F80006F020FA284B984242D9201D06F014FA37
:1009080063780133DBB2082B08BF002363702046ED
:10091800FFF7F4FE34E02DB1201D06F005FA04239C
:1009280023702DE0606806F005FA1C4B984227D921
:1009380023E07DB963784BB908A800F8045D03F09B
:1009480003FD20460421FFF795FE16E02046FFF739
:10095800B3FE12E0606806F0EDF90E4B98420FD92D
:10096800637823B908A800F8043D03F0EDFC20469D
:10097800FFF76CFE0523D3E715B92046FFF766FE9F
:100988002078003018BF012009B030BD0491011053
:100998000C900110D012130040420F0000879303FF
:1009A80030B50468013A234608681D1B854204D205
:1009B80012F8010F03F8010BF6E730BD07B5002266
:1009C80001A9054806F07CFB044B0199186805F05D
:1009D800F1FA03B05DF804FB503C011004900110DB
:1009E80013B5074C07482146002206F069FB02A808
:1009F800238840F8043D05F097FD02B010BD00BF04
:100A08000C9001106A3C0110F0B516460268184BAC
:100A18000F46511E9942ADB0044624D8154903A883
:100A28000CF000FD0BAD2268134913A80CF0FAFC7A
:100A38000024394628460CF0B3FE0095019403A81B
:100A4800214613AAA12306F063FBA04205DA03A8F6
:100A5800A1212A46234606F031FC3046012100F048
:100A6800B7FF002001E04FF0FF302DB0F0BD00BF10
:100A7800DE2B0100793C01108C3C011008B502788E
:100A8800532A0B4608D1817A0D4A303910681A6802
:100A9800C9B205F087FA06E04D2A04D1084A096868
:100AA800106805F08BFA00F079FF38B1044B18682C
:100AB80005F05CF9BDE8084000F07ABF08BD00BF4A
:100AC8000490011030B501248BB01049224602A8C9
:100AD8000CF0A8FC02A8694601AA002306F0F0FA67
:100AE800002810DB0A4D019A2868E1B2013405F0AC
:100AF80013F9082CE9D1286805F038F9054B18686E
:100B080007F0E6F800200BB030BD00BFD43C011060
:100B18000490011008900110F0B597B007461888A6
:100B28001C9B1288ADF80C200C4619881D9BADF84B
:100B38000E001B88ADF812302378ADF810105A1E3D
:100B4800062A37D81D4E32682AB91D4806F0E2FD3C
:100B58006FF0010030E01B4D03AA2868314605F00C
:100B6800B5F82178286805F0CFF83B68C3610546D9
:100B780003AA31460DA804F0E0FE00210DA804F0F8
:100B88006BFFA86122781049002405A80CF04AFCE4
:100B9800812120222B46009405A806F08FFBFFF741
:100BA80091FF0A4806F0B6FD1E98012100F010FFDB
:100BB800204601E04FF0FF3017B0F0BDB8900110AB
:100BC800E03C011004900110D43C0110F93C0110E4
:100BD80070B5037892B0013B0024062B05460E46FB
:100BE80011940F940E940D940C940B940A941BD8A2
:100BF800214620220AA80CF0B1FB0D492A7802A848
:100C08000CF010FC812120220AAB009402A806F007
:100C180055FB0446FFF756FFFFF754FF3046012106
:100C280000F0D6FE204601E04FF0FF3012B070BD54
:100C3800D43C0110F0B593B012AD002145F8201D49
:100C480007462022284611910F910E910D910C9183
:100C58000B910CF083FB01240D49224602A80026C3
:100C68000CF0E0FB009602A8812120222B4606F01A
:100C780025FB002809DB0134082CEDD1FFF722FF02
:100C88003846012100F0A4FE304613B0F0BD00BF85
:100C9800D43C01100000000070B5B6B000231493D6
:100CA8001293119310930F930E930D9301252A46D7
:100CB8008149824E15A80CF0B5FB2A4680491DA82B
:100CC8000CF0B0FB2023002400930DAB019301210D
:100CD80081231DAA029415A806F01AFA2A46794912
:100CE80015A80CF09FFB2A4677491DA80CF09AFB23
:100CF800764B02940022CDE900234FF4807114232F
:100D08001DAA15A806F004FA07A9224615A806F098
:100D1800D7F9E9B2079A306805F044F96C4915A883
:100D280006F0F0FA2A466B4915A80CF07BFB2A4618
:100D380069491DA80CF076FB684B15A88DE81800CA
:100D480021461DAAA123013506F0E2F9082DAED1EE
:100D580055A3D3E900230294CDE900234FF4807111
:100D68005F4A6048142306F0D3F959495D4806F0F4
:100D7800C9FA4FA3D3E900232146CDE90023029401
:100D8800594A5A48142306F0C3F901238DE818007C
:100D98002146574A574806F0BBF94FF4FA638DE8E5
:100DA8001800554A554804234FF4807106F0B0F9ED
:100DB8005349524806F0A6FA40F2EE238DE818008F
:100DC800504A514802234FF4807106F0A1F94FF4BC
:100DD8007A754E494C4806F095FA009521460194DB
:100DE8004B4A4C48022306F093F90095214601949A
:100DF800494A4A484A4D022306F08AF914238DE8E5
:100E0800180021460423474A474806F081F906A9F5
:100E18002246404806F054F90DF11A0122463F488F
:100E280006F04EF908A922463F4806F049F90DF1A7
:100E3800170122462F4806F043F90AA922462948F5
:100E480006F03EF90BA92246284806F039F909A907
:100E580022462A4806F034F9294622462A4806F04E
:100E68002FF99DF81730BDF81A20BDF81810009317
:100E78003068089B02F034F830680A9905F09EF84B
:100E880030680B9905F0ACF80999306805F092F8CC
:100E980036A82B8840F8A83D05F046FBFFF712FE60
:100EA80036B070BDAFF30080000000A09999B93F3B
:100EB800000000C0CCCCFC3FD43C011004900110D1
:100EC800093D01101C3D01102F3D01100000084094
:100ED800FD070010793C01108C3C01106866011078
:100EE800953D0110863D01100A3E0110F43D0110A8
:100EF800763E0110663E0110E73E0110503C01109D
:100F08003D070010713F01106A3C01106107001095
:100F18001E400110134001107E4001106540011071
:100F28000C900110EC400110DD400110AFF300807F
:100F380070B50546042000F051FA124C064606F03A
:100F48005DFE4FF42470266000F048FA0E4A2168CE
:100F5800064601F087FF0D4B0D491E60284603F039
:100F680058FD0C4B0C491868002204F0F7FA0B4B9B
:100F78000028188003DBFFF78FFE002070BD4FF0BC
:100F8800FF3070BD08900110001009100490011086
:100F9800903B011008910110624101101880011066
:100FA800F0B58BB007460AA801254FF0FF3300F8CB
:100FB800055D0E461446099303F004FA00281ADB6F
:100FC8000E4B0F48B3F900200097042301930296B3
:100FD80054B1002109AC039104940591069100686D
:100FE80004F0AFFA099806E00394049400682946CF
:100FF80004F0A7FA20460BB0F0BD00BF188001101E
:10100800089101102DE9F04FDFF8C8802C4D8FB002
:10101800002402264FF0410B4FF0B10A64230B91D4
:101028004FF4803241468DE81008029403960494E8
:1010380005960694CDF81CA008940994814603F0FF
:101048008EFF0746286806F043FE1E491E48012207
:10105800FFF7A6FFC7F58033DB0807F180511A4672
:101068000D9001F5002128680C9306F0F6FD174A4B
:1010780005460121106804F031FB154A0B9B0293C9
:101088008DE804080C9B03964FF4A072ED000492BF
:10109800C822069241461A4605966423CDF81CA03C
:1010A80008950994484603F05AFF48464146EA190C
:1010B80003F01BFCDDF834C060460FB0BDE8F08FCC
:1010C8000890011000100910000009100891011083
:1010D80043435132000008100121FFF793BF00007D
:1010E80030B58FB0412400949DF84C4001944224BF
:1010F80002940494C82405940A246243089152086F
:10110800129907920C224FF4A0754A4300240395C4
:10111800520882250A920B93069509950C940D9412
:1011280021466422024B03F0C8FD20460FB030BDB3
:101138004343423208B5000244F62063B0FBF3F0A3
:10114800C0B107EE900AF8EEE77A17EE900A0AF0B7
:10115800B3FF10F0CDFD0022074B0BF001F80BF0A8
:1011680011FAFF2803D8002808BF012000E0FF205B
:10117800C0B208BD012008BD0000494030B5294C67
:10118800002185B020680A4601F0A5FF002842D05A
:101198000388072B9FBF216803F1FF32142303FB49
:1011A8000213428898BFD3F8F0508388A3EB020358
:1011B8000289C088A2EB000000FB03F088BF6FF033
:1011C8007F45FFF7B7FF02AA044601A9284603ABEB
:1011D80002F01FFF039A12B16243120A0132029B06
:1011E800039213B163431B0A01330198029310B1B0
:1011F8006043000A013001908DF801008DF803204A
:101208000DF101000DF102010DF103028DF802301C
:1012180005F060F903E0039003A805F06FF905B045
:1012280030BD00BF049001102DE9F04F91B0064683
:1012380089460F929DF868A01D46002B4BD00224CA
:1012480000234FF0410BB2278DE80808029304935E
:10125800069308930A930C930D93039464230594BF
:10126800079409940B9728461C494FF4903203F0D1
:1012780076FE3268B168804600F18050A24000F5E1
:1012880000200BF0D1FF164BCDF808A08DE8080818
:101298004FF4A0730493C82306930F9B0A933368F3
:1012A8000394A3405B080C9305940794CDF8209011
:1012B80009940B97284609494FF49032642303F0A8
:1012C8004EFE32680549284608EB820211B0BDE897
:1012D800F04F03F00ABB11B0BDE8F08F0000081012
:1012E800424C54312DE9F04796B09A4600230293B8
:1012F8008046102340200E460393914600F070F874
:10130800011D00F14403002421F8024C21F8044C8B
:1013180004319942F7D1317804904B1E062B48D8F6
:10132800294F3B682BB9294806F0F4F96FF00104FE
:1013380041E0274DBAF80030B9F800200091ADF827
:101348003420ADF836300DAA02AB3946286805F0CE
:1013580006F83178286804F0D7FCD8F80030C36163
:10136800054602AA39460DA804F000FB21460DA83F
:1013780004F072FB04210323A8610A46009302A823
:101388001E9BFFF751FF3278124905A80CF04AF866
:10139800812120222B46009405A805F08FFFFFF736
:1013A80091FB0D4806F0B6F91E98012100F010FBDC
:1013B80001E04FF0FF34049808B100F015F820461A
:1013C80016B0BDE8F08700BFB8900110E03C0110EE
:1013D80004900110D43C0110F93C01100BF054BCEE
:1013E8000BF052BC0BF058BC0BF056BC00207047F9
:1013F800FEE70000012884B03CD870B91E4B1A687B
:101408000092009AD20117D5009AD24342F0807216
:1014180001921A4A01981060F1E7194B1A68009274
:10142800009AD00417D5009AD24342F48052019210
:10143800144A01981060F1E7134A11601A68029281
:10144800029AD10116D4029AD24322F080720392F2
:1014580003990A4AF1E70D4A11601A680292029A42
:10146800D20407D4029AD24322F4805203920399F9
:10147800044AF1E704B0704754310540043105408F
:10148800503105400031054004340440083304401D
:10149800014B0020187070474C900110034A01233B
:1014A8001370034A00201370704700BF4C9001105E
:1014B8001490011010B5144A037819B11349137028
:1014C80000200860127851B20029A8BFD3B2104A90
:1014D8000020082B107013D80E4C54F823407CB110
:1014E80013700D4A81424FF00103A8BF07481370DB
:1014F8000A4A0B49A8BF006813700860002010BD95
:101508004FF0FF3010BD00BF208001102090011067
:1015180024900110289001104C9001101490011093
:101528001090011038B50C4611461546FFF7C2FF5A
:1015380000280FDB15B1084B22681A60074B93F996
:101548000030002BA8BF044A054BACBF12682268C4
:101558001A60002038BD00BF2090011020800110C3
:1015680010900110054A064B1B6810681844054B7B
:101578001B68034490681844704700BF0450044037
:10158800005004400850044030B5D3B012A81549A3
:101598000CF006F90025144B53F825405CB12A4697
:1015A8001249236802A80BF03DFF12A802A90BF00C
:1015B8005FFF0135EFE7214612AA00940194012349
:1015C8000B4805F0A5FD2146012300940194094A22
:1015D800094805F09DFD09490748224605F070FDB8
:1015E80053B030BD7846011028900110B74601105D
:1015F800C1460110D7460110D146011015900110BF
:1016080010B50024064B53F8243033B12146054861
:101618000CCB06F07FF80134F4E7184610BD00BF84
:1016280028900110144701107FB50B49034608683C
:101638008988049004AAADF8141043B100210092DF
:101648001846019102918222062303F036FB0020FE
:1016580007B05DF804FB00BF6845011007B530B15D
:10166800002100910191A122034B03F026FB0020E9
:1016780003B05DF804FB00BF2047011030B50388B4
:10168800122B85B012DCA1B10B4D05EBC300002471
:1016980040680190A12208460092029403942146D2
:1016A80055F8333003F009FB204603E04FF0FF30D4
:1016B80000E0084605B030BD70500110044B1878A2
:1016C80028B9044B1B78002B14BF02200020704758
:1016D800149001101C90011038B504460C20FFF737
:1016E8007DFE0546FEF7BFFF0F4B10491D602046E3
:1016F8000F4C03F08EF920680E49002203F02EFFEC
:101708000D4B0E4918800022206803F027FF0C4B70
:101718000C4918800022206803F020FF0A4B18802B
:10172800FFF732FF002038BD1890011070450110F6
:1017380008910110354701101E800110394701102A
:101748001A800110414701101C800110064B09B195
:10175800186207E053F821200AB10131FAE7024B79
:1017680043F82100002070472890011010B50B4B5A
:1017780088B0B3F90020009007AB00210293084B12
:1017880001910391049104461868012303F0D9FEDE
:10179800044B07981C7008B010BD00BF1E800110D4
:1017A800089101100E9001107FB5084BB3F9002085
:1017B80005AB00210093064B0191029118680B4676
:1017C80003F0BFFE059807B05DF804FB1C8001100C
:1017D800089101107FB5094BB3F9002005AB002132
:1017E8000093074B0191029118680B4603F0A9FE7C
:1017F8009DF8140007B05DF804FB00BF1A800110C3
:101808000891011010B50E4C0E480022214605F033
:1018180057FC0D4B22781A700023D9B20B4A52F8A4
:1018280021400133002CF8D1094B074A1868FEF70C
:101838006BFF21460448BDE81040FFF73BBE00BFE0
:101848000F900110C146011024900110289001103A
:101858001890011008B5FFF71FFA00F0A5FF02F075
:10186800C9FE06F00DFB00F0D9FC00F001FCBDE854
:101878000840FFF789BE000008B505F0DBFE074BFE
:101888001868FEF79FFF064B187005F033FD18B176
:10189800BDE80840FFF7DEBF08BD00BF1890011083
:1018A8001C90011070B5FFF7ADFF00263446324B8F
:1018B800186802F0A3FF0546FFF7DEFF042C07D8DF
:1018C800DFE804F00915272D36002C4B1B78B3B937
:1018D80003242E46EBE72A4B1A782A4B53F822307A
:1018E8009B6898470028B4BF03240124F1E7264BDE
:1018F8001B78002BE9D0FFF757FF0224E9E7204BBC
:101908001A78204B53F82230DB689847002823DAEE
:10191800DEE71D4B1B78002B08BF0024D9E7174AC8
:1019280000231370194A04241370FFF73DFFD0E712
:10193800124B1B7813B1FFF7B1FD0BE01DB1144B2F
:101948001B78002BC5D1134B1348FF2200211A70B6
:10195800FFF7B0FD0024BCE7002EBAD0002DB8D1A7
:1019680005F0F6F90B4B0C48FF2229461A702C4655
:10197800FFF7A0FDADE700BF049101104C900110E6
:1019880024900110289001101C900110149001104F
:10199800DC9A0110208001100F90011010B5FFF79C
:1019A80019FF044608B1FFF7FFFE204610BD0000EE
:1019B80008B5054B186806F08BF9044B1878BDE894
:1019C8000840FFF7D3BE00BF089001100E90011029
:1019D8001FB548B1042300930023019102931821F5
:1019E8006422034B03F069F905B05DF804FB00BFFE
:1019F80045565431C269006A101A704770B50346DB
:101A08000024944217D0D8691D6A401B002801DCC5
:101A1800224610E058691D69461C5E61285C08551D
:101A2800186A5D6901301862D868854204BF0020D1
:101A380058610134E5E7104670BD0000034B4FF4D0
:101A48008022C3F880200020704700BF00E100E03A
:101A580038B53A4B00221A708268536803F0F803CD
:101A6800982B04465DD00CD8802B19D004D8602B55
:101A780057D0702B55D058E0882B52D0902B0FD0D0
:101A880053E0B82B24D004D8A02B4AD0A82B1FD0C1
:101A98004BE0C82B3CD0F82B43D0C02B45D137E0C6
:101AA8009368216AE269511AE268521A002ADBB285
:101AB80028DDA2692169501CA0618B54E369A269E1
:101AC8000133E361E3689A421CD10023A36119E062
:101AD800237923B1637913B1002393602BE0256B3D
:101AE80035B9636BA06A616A9847206300B3E56201
:101AF800E36AA26A591CE162D25C236B013B23634F
:101B0800A3689A60A36804221A6008229A6138BD03
:101B1800A37933B10023E36223636361A361E361C3
:101B2800236204231360082300E02C23936138BD4B
:101B3800A368986001232371E4E700BF4D9001106A
:101B4800014B1868FFF784BF509001108368382252
:101B58009A6144221A60704738B503210546F0227D
:101B68000120002304F060FE02200121F02204235A
:101B780004F05AFE02200121F022042304F054FE4E
:101B880001200421F022002304F04EFE002102204F
:101B9800F022042304F048FE064B0024C3F8184240
:101BA800054B2C714FF4802228461A60FFF7CEFFB0
:101BB800204638BD0010104000E100E0816808B5FB
:101BC8000B685B0702D4FFF7C1FF0BE04B68F82BEB
:101BD80008D1054A1378322B85BF6C238B610133FA
:101BE80000231370002008BD4D90011013B58DF827
:101BF800051002A9002401F8044D80688DF80740FB
:101C080004F0E6FD204602B010BD00002DE9F843BF
:101C180020269946144B03600446C66030460F469A
:101C28009046FFF7DDFB002520616561A561E56150
:101C3800256266623046FFF7D3FB01236371A06219
:101C4800C4F834903846E5622563A760A571074952
:101C580004F07CFD20464146FFF7C8FF044B83F89B
:101C680017532046BDE8F88310510110A0860100E3
:101C780000E100E0817142717047000038B5054607
:101C88003820FFF7ABFB2B46034954220446FFF7E5
:101C9800BDFF024B1C6038BD00100A405090011077
:101CA80070B500238AB00993099A394B9A4202D831
:101CB800099B0133F7E7374C05F0CAFC06F062F9D7
:101CC8002068FFF735F900F0C3FD2068FFF704FD31
:101CD80000213148FFF73AFD00F0A0FA00212F4813
:101CE800FFF734FD00F0C4F900212D48FFF72EFD61
:101CF8002C480121FFF72AFD002419262546002338
:101D0800009329480DF11A0107AA0DF11E0305F0E9
:101D1800D7F900280BDBBDF81A30022B07D1BDF824
:101D28001C3023B9BDF81E30132B08BF01351F48DE
:101D380008A9002205F0C4F9002804DB08981C490A
:101D48000BF0C2FB30B1013ED9D105B124B905F081
:101D58001FF801E00134F6E7022300241322009360
:101D6800019303930492029405940121114A0E48A9
:101D780005F0CEF90E4B0F4A0C488DE818000121EA
:101D8800A12305F0C5F9FFF78DFD20460AB070BD07
:101D98009F2526000491011024800110488001101D
:101DA800388001105880011040510110465101102F
:101DB800204701106866011013B502AC012304F82E
:101DC800013D204602F0FEFA0B4B186803F0CEFFE7
:101DD8000A4B186805F07CFF0020FFF7C7FC00F0ED
:101DE8004BFD036821469B68012298470028F6D1DD
:101DF800034B187002B010BD049001100890011038
:101E0800549001102DE9F34100F036FD0A260446EE
:101E1800454D2F78012F07D002D3022F17D079E034
:101E2800424BFF221A7073E0236820469B6869467C
:101E38003A46984700286FD03C4A9DF8001013781E
:101E48003B48117041EA03230380022363E0384BC7
:101E58001B88FF2B26D123682046DB689847032878
:101E68005ADD23683A469B6801A9204698472368AB
:101E78003A4602AF9B680DF106014FF00008204674
:101E8800984707F8058D01A9384605F03DFF01235D
:101E980038460DF106018DF8033005F035FF85F859
:101EA800008039E0FE2B0AD1236820469B686946EA
:101EB8000122984780B3684602F07CF92AE0FD2B9E
:101EC80026D123682046DB689847022824DD23684A
:101ED8000DF101019B6801222046984723680DF106
:101EE80002019B6801222046984723680DF10301EF
:101EF8009B680122204698470DF103020DF101006D
:101F08000DF1020104F0E6FA0A4B01221A7001E011
:101F1800012300E000232B70013E16F0FF067FF43A
:101F280077AF02B0BDE8F0815490011055900110D0
:101F3800348001105C90011030B5254C87B02068C2
:101F480001F086FF00280BDA224B1B78002B3BD0D0
:101F5800214B224819684A1C1A6005F0DBFB33E064
:101F68001F4B1A78062A1D4601D0FFF74BFF05AB19
:101F78000093206802A904AA03AB01F022F9059B8B
:101F8800009301230193174B0299049A1868039B45
:101F9800FFF7A6F800F070FC03681B699847124B1E
:101FA8001B7863B9FFF7EAF809E08A88CB8892B210
:101FB8009BB29A4208D10628F7D0FFF723FF0B4BB4
:101FC80028781B681968F0E7002007B030BD00BF0B
:101FD8000490011015900110589001104D510110F6
:101FE800A8900110049101105C9001100890011054
:101FF800094B4FF4FA725A604FF448729A604FF0E6
:1020080000421A60054B4FF42F7159604FF461710B
:1020180099601A60704700BF609001106C900110C1
:1020280010B5114C86B0206801F012FF00210A4655
:10203800206801F050F805AB0093206802A904AAB3
:1020480003AB01F0BEF8059B009301230193074BF6
:102058000299049A1868039BFFF742F8FFF78EF875
:10206800002006B010BD00BF0490011004910110BB
:10207800F0B5184F184E194A194D87B0002403239C
:102088008DE8180038468021042305F041F86423C0
:102098008DE8180030468021124A042305F038F8EC
:1020A80001238DE818002846042380210E4A05F0F4
:1020B8002FF803A92246384605F002F804A922465B
:1020C800304604F0FDFF284605A9224604F0F8FF33
:1020D80007B0F0BD94510110DD510110A15101105C
:1020E8002C520110EC5101103A52011007B502A808
:1020F800012300F8013D02F065F9FFF7B9FF084B2D
:102108001B680BB1FEF7DEFC064B186805F0E0FD16
:102118000120FFF72BFB002003B05DF804FB00BF94
:10212800B8900110089001104368B3F1004F37B51B
:1021380004460D461BD0CB1A0169C2684B4302FB0B
:10214800053203684FF47A7192FBF1F213448B4223
:1021580001DD016003E0002BB8BF002303602046C7
:1021680002A950F8083B21F8023D05F0CDFD656055
:1021780003B030BD30B51E4D87B0286801F068FE49
:10218800002128680A4600F0A6FFC0B1C388048968
:102198004288E41A022194FBF1F41C448388154810
:1021A8009B1A93FBF1F11144A4B289B2C1F1A001C9
:1021B800643CFFF7B9FF10482146FFF7B5FF05ABB0
:1021C8000093286802A904AA03AB00F0FAFF059B54
:1021D800009301230193094B0299049A1868039B01
:1021E800FEF77EFFFEF7CAFF002007B030BD00BF34
:1021F80004900110789001108C9001100491011046
:1022080007B502A94FF4FA7340F8083B21F8023DDC
:1022180005F07AFD03B05DF804FB00002DE9FF41ED
:10222800DFF8C080264F274A274E284D00244FF458
:10223800AF738DE8180040468021042304F068FF3E
:102248004FF416738DE8180038468021204A04237D
:1022580004F05EFF4FF4FA738DE8180030468021D1
:102268001C4A042304F054FF4FF42F738DE8180020
:10227800284604238021184A04F04AFF02A922466E
:10228800404604F01DFF03A92246384604F018FF13
:10229800124B029ADA60039A1A6102A92246304662
:1022A80004F00EFF2246284603A904F009FF0C4B50
:1022B800029ADA60039A1A6104B0BDE8F08100BF9F
:1022C800FC520110C25201103F53011086530110F5
:1022D800075301104B5301109253011078900110CD
:1022E8008C900110B752011007B502A8012300F81D
:1022F800013D02F067F8FFF791FF0B48FFF780FFF9
:102308000A48FFF77DFF0A4B1B680BB1FEF7DAFBA3
:10231800084B186805F0DCFC0020FFF727FA0020BE
:1023280003B05DF804FB00BF789001108C90011099
:10233800B8900110089001100C4B002119724FF44D
:1023480048714FF4FA7219614FF000411A60DA606F
:102358005960074B1A6001221A724FF42F72DA6023
:102368004FF461721A615960704700BF789001108C
:102378008C900110002070472DE9F041434B444CEC
:10238800196801298EB01AD1424A029041238DE87A
:102398000C00022303930593B1234FF4A078C827B8
:1023A800079300264FF47A430893CDF810800697D8
:1023B8000996206838494FF49032642330E0A1F13F
:1023C8006403632B43D80A2691FBF6F206FB12122C
:1023D80030321206642342F4B04242F0450291FBC7
:1023E800F3F503FB1511B1FBF6F1303142EA014276
:1023F800009241220192022203920592B122029098
:102408004FF4A078C827079200264FF47A42206834
:1024180021490892CDF81080069709964FF490321A
:1024280002F09DFD054600F18050C5F590318DE81C
:10243800400102972122334600F5002002F016F8E9
:102448002068154905F57A4202F04FFA1BE021236E
:102458008DF82F300023ADF83030ADF832304FF41E
:10246800A073ADF83430C823ADF836300DF136031B
:102478000093236801930DF12F000CA90DF132028E
:102488000DAB02F0ABF80EB0BDE8F0811090011072
:1024980004910110434D56320000081010B586B063
:1024A80006AC002344F8043D204604F027F8124BFC
:1024B8001B68DBB9ADF80E30ADF810304FF4A073DF
:1024C800ADF81230C823ADF814300C4B009421221B
:1024D8001B688DF80D2001930DF10D000DF10E0113
:1024E80004AA0DF1120302F079F802E00120FFF7C7
:1024F80043FF002006B010BD109001100491011098
:102508006F4B37B51D682B6804469B6828460DF14C
:1025180003010122984708B90020CFE09DF8031075
:1025280011B92046674903E0082904D166492046C5
:102538000BF036F94BE01029F8D0502930D1634B15
:1025480000210A46186800F0C6FD014608B10130AE
:1025580002D12046072271E08B884A88C8889D1AD4
:102568000B89181A0B8823804B8840F2333203EB0F
:10257800550353439B0AA3708B7960716A4303EB3D
:102588005003920AE37022710B88072B40F2958062
:102598004A895B2312FB03F34D4ADB1113708CE06D
:1025A800602902D14A4B1B7881E0A1F15103062B27
:1025B8002BD8464B503989B218680DF1060200F045
:1025C8008AFD014628B9204605220AF0C7FE0520E3
:1025D80074E0421CF7D0838842889D1A0389C0881A
:1025E800181ABDF8063023704B8840F2333203EBDB
:1025F800550353439B0A63708B7920716A4303EB3D
:102608005003920AA370E270E1E7582939D12B6888
:1026180028469B6801A90222984701287FF77CAFCA
:102628002A4BBDF8041018680DF1060200F053FD9E
:10263800014608B1431C04D1204606220AF08EFE4A
:102648003BE0838842889D1A0389C088181ABDF820
:10265800063023704B8840F2333203EB5503534363
:102668009B0A63708B7920716A4303EB5003920ACB
:10267800A370E2704A895B2312FB03F3DB116371D9
:102688001BE0422916D1114B00210A46186800F0B8
:1026980022FD431E03339FBF428883889B1A02EBA7
:1026A80053039BBF40F23332534300239B0A2370EA
:1026B800012003E00120207000E0062003B030BDB7
:1026C800A490011020540110255401100490011009
:1026D800A090011010B5074C2478062C03460A4632
:1026E80002D1FFF70DFF10BD03490868194600F035
:1026F80093FC10BDA890011004900110062838B56D
:10270800054641D8224C206810B103685B68984799
:10271800204B1D70013D052D2AD8DFE805F0030880
:102728000E11151D1C4B18682060002124E01B4B5E
:10273800186820600021012217E0194B1B6809E086
:10274800184D0121286802E0164D28680021FDF780
:102758008DFE2B68236011E0104D01212868206050
:10276800FFF744FA286801210022FFF783FA05E001
:10277800094B18682060012100F04CF920680368B3
:102788001B689847002038BD4FF0FF3038BD00BFA8
:10279800A4900110A8900110AC9001105090011065
:1027A800B090011000900110F0B5214D214F224A40
:1027B800224E85B000242146009401942846012326
:1027C80004F0A6FC54238DE81800384610211C4A52
:1027D800012304F09DFC4FF496438DE81800214630
:1027E80004233046174A04F093FC22460DF10B01EE
:1027F800384604F065FC144B9DF80B101868FFF779
:10280800F5F9224603A9304604F05AFC0F4B039908
:10281800186800F00BFB0DF10A012246284604F067
:102828004FFC9DF80A00FFF769FF05B0F0BD00BF37
:102838002A54011000550110385401106155011037
:102848000C5501106F55011050900110B0900110F7
:1028580010B5084C2046FFF711FA204600F03CF965
:10286800204600F0EDFAFDF703FEFFF79DFF00207C
:1028780010BD00BF55240010014B1868704700BFF9
:10288800A490011042698069101A7047F0B5034698
:102898000024944216D09D695869401B002801DC29
:1028A80022460FE0DE689F680135701C37F8166015
:1028B8009D615D68D860A84204BF0020D8600E55AD
:1028C8000134E6E71046F0BD044B0020C3F81802B7
:1028D800034B4FF40002C3F88020704700101040EB
:1028E80000E100E00C4B4FF48042C3F8142296221A
:1028F8000A49086840070BD4013AF9D1C3F81422F1
:1029080010220868400703D4013AFAD10120704721
:102918000020C3F8140270470010104014610F40E3
:1029280037B5054690F83D00D0B10E480421002285
:1029380003F0DBFF01A804F0F7F92846FFF7D2FF00
:10294800044630B9019804F0F5F9074B9842F4D9D8
:1029580000E0012403480421012203F0C6FF2046B9
:1029680003B030BD00500C4020A1070038B50F4B14
:10297800042405469C6301200321F022052303F06B
:1029880053FF21460120F022052303F04DFF0120CB
:1029980013210346F02203F047FF054B4FF40002D2
:1029A8001A602846FFF7BCFF002038BD0010104011
:1029B80000E100E038B590F83D30044623B3426B9F
:1029C800836B9A4216D090F830507DB990F83C301D
:1029D8000133DBB2052B80F83C3013D1FFF7A0FFA1
:1029E8000A4804F097FE84F83C500BE0002380F876
:1029F8003C3007E0064B4FF48042C3F81422002213
:102A0800C3F81422636BA363002038BDE855011096
:102A18000010104080F83D10044B21B14FF4804263
:102A2800C3F818227047C3F81812704700101040F6
:102A3800F0B5244B03601026044689B04660202078
:102A48000F46FEF7CDFC0025A060E56025616561B5
:102A5800A561E6612020FEF7C3FC1B4B07930F23FB
:102A680020626562A5620293E76204231748039512
:102A780002A904950695059303F0E0FE0825134E78
:102A8800013DB3680193FAD13046012103F024FFD8
:102A98003046042103F033FF30460421012203F0BD
:102AA80024FF0B4B83F817530A4B84F83050204609
:102AB8006563A56384F83C5084F83D50C3F8185208
:102AC80009B0F0BDD055011000CB280C00500C40C7
:102AD80000E100E00010104038B505464020FEF740
:102AE8007DFC29460446FFF7A3FF014B1C6038BD57
:102AF800AC90011070B5C56804460E4645B901682A
:102B080003694068490098474008E06058B1A560EB
:102B1800A3686268591C32F81330A1603380E368F7
:102B2800013BE360012070BD0269436970B5046828
:102B3800D31AE31A002B0CDDC56846686B1C0132FA
:102B4800A342C36026F81510026104D10023C360B4
:102B580001E0002070BD012070BD000037B590F87D
:102B68003D202A4B044682B3294A4FF48041C2F8DB
:102B780014120021C2F8141204229D681A62234B11
:102B8800DB6813F002030DD004F11C000DF10601FF
:102B9800FFF7B0FF08B9ADF806001C4BBDF80620DA
:102BA8009A60ECE705F47F42B2F5B44F06D0B2F56F
:102BB800B64F04D1201DA9B2FFF7B6FF012384F850
:102BC8003030636B013363631DE004229D681A6231
:102BD8000E4BDB689B070DD504F11C000DF10601B7
:102BE800FFF788FF08B9ADF80600084BBDF80620C6
:102BF8009A60EDE705F47F43B3F5B64F03D1201D86
:102C0800A9B2FFF791FF03B030BD00BF00500C40E0
:102C180000101040014B1868FFF7A0BFAC900110DE
:102C28008269C069101A704790F8343013B9426845
:102C3800136013600020704770B503460024944267
:102C480017D09869DD69401B002801DC224610E096
:102C58001869DD68461C1E61285C0855D8691D691D
:102C68000130D8619868854204BF0020186101349A
:102C7800E5E7104670BD000008B502200021F022EB
:102C8800042303F0D1FD02200121F022042303F0E4
:102C9800CBFD034B4FF08072C3F88020002008BDA5
:102CA80000E100E008B502200021F022012303F032
:102CB800BBFD01210B460220F02203F0B5FD0120E7
:102CC8000321F022002303F0AFFD01200421F022AC
:102CD800002303F0A9FD034B4FF080721A60002017
:102CE80008BD00BF00E100E073B50446002062683B
:102CF80084F83400936803F00E03042B16D113688C
:102D0800E169A269511AA268521A8242DBB22FDD28
:102D18006269E168551C65618B54A3696269013376
:102D2800A361A3689A4223D1606121E00C2B02D1F0
:102D3800136801931CE0022B1AD11025E66A36B9F4
:102D4800236B606A216A9847E06268B1A662A36A49
:102D5800626A591CA162D25CE36A013BE362012307
:102D680084F8343063681A60013D15F0FF05E5D139
:102D780002B070BD014B1868FFF7B6BFB0900110E4
:102D88002DE9FF412026264B036004468660304625
:102D980090460F46FEF724FB0025E0602662256179
:102DA8006561A561E5613046FEF71AFB4FF496436D
:102DB8000193032360628DF809303846194BC4F833
:102DC800308001A9A562E562676084F834500393F6
:102DD80001268DF808508DF80A5003F055FE6068FA
:102DE8008DF8025069468DF803508DF800608DF813
:102DF800016003F019FF6068314603F033FF606833
:102E08002946324603F0F2FE60683146324603F046
:102E1800EDFE054B204683F8185304B0BDE8F08159
:102E2800F855011000CB280C00E100E008B5034A72
:102E3800406803F087FD002008BD00BF00CB280CC8
:102E480038B505463820FEF7C9FA04492A4604462B
:102E5800FFF796FF024B1C6038BD00BF001008400A
:102E6800B09001102DE9F04188461146044602F061
:102E7800E7FF04F5D27604F51A77354630461C3656
:102E880006F082FBBE42F9D11423C4F88032A4F8BC
:102E98007A32072300266422A4F88432082384F8AF
:102EA8007662A4F87822C4F88C62C4F8A081A4F8E9
:102EB800863284F888624FF47A70FEF791FAA4F8A3
:102EC8006C62C4F86802A4F87C62A4F87E622846A2
:102ED8001C3506F0E2FBBD42F9D12046BDE8F08181
:102EE8006429C0F8803288BF64219DF80030A0F8BA
:102EF8007812A0F87A2280F888320020704713B53B
:102F08009DF8004061F302048DF80040BDF80040D0
:102F180062F3CB04BDF80220ADF8004063F3090268
:102F2800ADF80220BDF810201344BDF80420013983
:102F380063F309021C2303FB010000F5D270694604
:102F4800ADF8042006F0FAFB02B010BD112A2DE9F5
:102F5800F0415BD990F87632002B57D1B0F87E4219
:102F6800B0F87422944254D2D0F87C322BB94AF685
:102F7800552321F8023B092400E008244AF6562389
:102F88000B80B0F87E32D0F870724FF00C0E0EFB4A
:102F980003F337F803C0A1F804C0B0F87E520EFB63
:102FA8000575AB886A889A1A92B24A81B0F87E523F
:102FB8000EFB05752B89ED885B1B9BB28B81B0F8E6
:102FC8007E520EFB05756E8806EB5206B6B2CE80B1
:102FD800B0F87E520EFB05751A44ED8805EB5305D3
:102FE800ADB20D81B0F87E820EFB087762447F890E
:102FF800CF813A44B31815FA83F34B80B0F87E3288
:103008000133A0F87E326000BDE8F0810020BDE801
:10301800F0811846BDE8F0810F2A2DE9F041B0F89B
:103028007C3205460C4653D9B0F86C62B34206D3DD
:1030380090F888721FB1BDE8F041FFF787BF95F897
:103048007602002844D1B34243D22BB94AF655221E
:1030580024F8022B082000E00720D5F868624AF619
:10306800552203EB8303228036F81380A4F80480EA
:1030780002335900A1F1020C36F8133036F80C70FF
:10308800DF1B01F1020EBFB2314467818B8836F82D
:103098000E10591A89B2A1817A1808EB020336F882
:1030A8000C2002EB5707BFB2E78017FA83F236F815
:1030B8000E3003EB51039BB2238113FA82F3638032
:1030C800B5F87C320133A5F87C324000BDE8F081C8
:1030D8000020BDE8F08190F87632F0B5002B6CD175
:1030E800002939D10AB101231380D0F88C32002B82
:1030F80065D1B0F86C721D46BD4212DAD0F868127C
:103108000A2202FB051201359188568814898E1B04
:10311800D188611A7143994284BFC0F88C220B464A
:10312800EAE7B0F874720025BD4212DAD0F87012DE
:103138000C2202FB051201359188568814898E1BD2
:10314800D188611A7143994284BFC0F88C220B461A
:10315800EAE7D0F88C3232E0072904D9B0F874E2F3
:103168001C461D4624E0B0F86CE21C461D46754519
:1031780020DA0A266E43D0F8687207EB060CBE5BAD
:103188008E4204D10134002B08BF6346A4B2013536
:10319800EDE70C266E43D0F8707207EB060CBE5BA9
:1031A8008E4204D10134002B08BF6346A4B2013516
:1031B8007545EEDB1AB1148001E04FF0FF33184675
:1031C800F0BD10B5D0F868420C60B0F86C12116010
:1031D800D0F870221A60029BB0F874221A6010BDF1
:1031E800002070B50346044604EB84069442B6B248
:1031F80018D001EB460531F816602EB90130002BC6
:1032080008BF2B4680B20AE04BB11E806E885E80F4
:10321800AE889E80EE88DE802D891D810A330134B8
:10322800A4B2E1E770BD2DE9F74F02EB820293B239
:10323800002000930246009B9A4240D031F8123099
:1032480001EB4204002B37D0531D009D6688A788E8
:10325800B4F806E0B4F808C001959BB2019DAB42F2
:103268002AD031F813804FEA430B01EB0B05B8F174
:10327800000F1ED0B5F802A0B5F80490B5F8068086
:103288002D89564509D84F4507D3C64505D8AC45BD
:1032980003D3002521F80B5009E0B24509D8B945F8
:1032A80007D3F04505D8654503D3002525800130AF
:1032B80080B205339BB2D1E7053292B2BBE703B0C7
:1032C800BDE8F08F2DE9F04F8BB002EB820203903E
:1032D80093B2002004930190049B019A9A4200F053
:1032E8009380019A019B31F812405B00002C00F09A
:1032F80083809C1C0D1931F804E005951C1D0D19DF
:1033080031F804C006959C1D08330D19079531F84E
:1033180003800C5BCD18134605339BB20293049BC4
:1033280008950993029B099A934265D0029B4FEA3C
:10333800430931F8133001EB0907002B57D07D887A
:10334800BE88FB883F89754511D8039AB2F884B2C4
:10335800C6EB0E0ADA450ADC9C4201D8434503D97C
:10336800BC4204D8474502D8059B1D803AE0664513
:1033780011D3039AB2F884B2CCEB050ADA450ADC19
:103388009C4201D8434503D9BC4204D8474538D8A4
:10339800069B1E8026E0A34211D8039AB2F884B295
:1033A800C7EB040ADA450ADCAE4501D8654503D9FE
:1033B800B64504D8664502D8079A138012E04745F7
:1033C80015D3039AB2F884A2C8EB030353450EDC65
:1033D800AE4501D8654503D9B64508D8664506D82F
:1033E800089B1F800023013021F8093080B2029B1E
:1033F80005339BB2029395E7019A053293B2019384
:103408006AE7A342C9D9DCE70BB0BDE8F08F2DE924
:10341800F04F87B088880190C8884B880290B2F82E
:1034280004905088098903911FFA89F59CB281B2EA
:103438000495B2F80880D58805950FFA84FA0FFA32
:1034480081FCE245BDF80460BDF80870BDF80CE0E9
:10345800BDF814501FFA88F21DDB0FFA87FC0FFA2B
:1034680085FAD44503DC0FFA8EFBDA450BDD0FFA3B
:1034780082FAD4450ADC0FFA8EFBDA4503DD0FFA2F
:1034880085FAE24502DCC9EB03001AE00BB20FFA39
:1034980084FC634517DB3BB20FFA85FC634546DCC9
:1034A8000FFA8EF9CC450ADD0FFA82F94B450ADC92
:1034B80012B20FFA8EFE724501DD9C4520DC019B9D
:1034C800C01A80B238E03BB22AB2934218DB23B26A
:1034D8000AB2934202DC30B2824209DDBDF9100023
:1034E800834209DC0FFA86FE704501DD9A4203DC4F
:1034F800029BC8EB0300E4E72DB23FB2BD4213DBE9
:1035080024B209B28C4202DC33B2994208DDBDF91B
:1035180010309C4208DC36B2B34201DDA14203DC24
:10352800059B039A981ACCE747F6FF7004E00FFA58
:1035380082F94B45BCDDCAE700B207B0BDE8F08FA1
:1035480070B50E46098804461546E1B11388E3B103
:10355800994228D090F88832022B04D194F8883206
:10356800022B07D113E001F0070102F03CFD01280E
:1035780019D1F3E72978204601F0070102F033FD5D
:10358800012810D103E0084670BD184670BD3146C9
:1035980020462A46FFF73BFFB4F886128842CCBF84
:1035A8000020012070BD002070BD10B502203BB185
:1035B800948853884A88234493FBF0F3888806E06C
:1035C8001489D388CA88234493FBF0F308891044EC
:1035D800C3EB600080B2030444BF404280B200B233
:1035E80010BD000000000000F7B5CB8808890E4622
:1035F8001844D18813890B445B10C3EB600007EEB5
:10360800900AF8EEE77A174617EE900A08F054FD8C
:103618007B8872880446B8881844B38813445B10C2
:10362800C3EB600007EE900AF8EEE77A0D4617EE56
:10363800900A08F041FD02460B46204629460EF046
:10364800D9FA00220C4B08F08BFD09A3D3E900231B
:1036580008F0B0FE08F0B6FF07EE900AFDEEE77A34
:10366800CDED017ABDF9040003B0F0BDAFF30080E1
:10367800000000C0CA21094000806640AFF3008006
:103688002DE9F04786B080469DF838A00D461646CD
:1036980099460024B44201AF0CD00A2C0AD055F840
:1036A8002420404649465346FFF77FFF27F8140079
:1036B8000134EFE73A462B46002101204C1C1FFA43
:1036C80084FEB64504D30028F4D006B0BDE8F087E0
:1036D8000929F8D0B2F800E032F8021F8E4581BF00
:1036E80022F8021C93E80300A2F800E0586084BFA7
:1036F8001960002021460433E0E72DE9F04F002748
:10370800B2F900B08DB0B9463E465E453FDA51F891
:103718002600838844881C1B0389C0881B1A6343BE
:10372800642000FB03F54FF4FA74B5FBF4F401943C
:103738004FF4C8745C43B4FBF0F400201C44864684
:10374800764516D051F82EC0BCF80250BCF804A03B
:10375800C5EB0A0ABCF80850BCF806C0CCEB050556
:1037680005FB0AFA019D554503D8A2459CBF0130C7
:1037780080B20EF1010EDE45E2DBB8429ABF434645
:1037880038464FF00109013698460746BDE7B9F1BA
:10379800000F01D1A2F800900023B2F900E01E4604
:1037A800764501DB002026E0092BFBD851F826409E
:1037B800A0886588E788451B2089C01B68434FF0AF
:1037C800640C0CFB00F74FF4FA75B7FBF5F74745A7
:1037D8000FD84FF4C8754543B5FBFCF52844804520
:1037E8009FBF0CAD581C05EB830343F8284C98BFCA
:1037F80083B20136D4E7984206DA02AC54F8204086
:1038080041F820400130F6E713800DB0BDE8F08F95
:10381800F0B50023B2F900608BB01D461846B042DF
:103828009CB217DA0A2B14D051F820704DF8237087
:103838000130B0420BDA51F82040B7F800E0248894
:103848008EEA0404640702D101300125F1E701334F
:10385800E5E71C464DB10023A34205DA5DF82300D5
:1038680041F823000133F7E714800BB0F0BDF0B541
:10387800D0F86852B0F86C620020B0420CDA0A2422
:10388800444301302B5B23F00707974202BF03F044
:1038980007030B432B53F0E7F0BD2DE9F04FB0F8C9
:1038A8006C32D0F868720A2697B0044606FB037695
:1038B8004FF0000BB7423BD207F10A0807F1140595
:1038C800A5F10A02B24231D220463946FFF738FE46
:1038D80050B338F80A3C35F80A2C072B11D8072AB8
:1038E80017D80BF101021FFA82FB4FEACB0292B202
:1038F800134328F80A3C35F80A3C1A4325F80A2CE1
:1039080012E0072A05D823F00703134325F80A3CD9
:103918000AE035F80A2C072A06D9072B9EBF22F0A1
:103928000702134328F80A3C0A35C9E74746C1E7A6
:10393800D4F86892B14520D2CA463AF80A7B072FD4
:1039480019D927F00707BFB2D046B04513D2B8F847
:103958000050072D0CD925F00705ADB2AF4207D0AE
:10396800204649464246FFF7EBFD002840F06281B9
:1039780008F10A08E9E7D146DCE7D4F86832D4F858
:10398800705203F5777309930023A4F87432012267
:1039980013B25B45D4F8683200F32F8109998D4240
:1039A80080F02B8192B2D0000692002280B2ADF84E
:1039B8002E20B34216D3ADF82E2020460CA90DF1C7
:1039C8002E02FFF79AFEBDF82EA00FFA8AF3012BFC
:1039D80040F30F8100230593049303931946184677
:1039E8001F4611E011B20929E5DC1F8827F00707F7
:1039F800874201BF16AF07EB8101013241F8283C2D
:103A080008BF92B20A33D4E70CAA0FFA87FE52F81D
:103A18002390B9F80220079216AA02EB8E0E079A95
:103A28005EF828ECB9F804C0BEF802E01FFA83F883
:103A3800964588BF4746B9F8062008920FFA81FED6
:103A480016AA02EB8E0E089A5EF828ECBEF806E07D
:103A5800964588BF414616AA0FFA80FE02EB8E0EE5
:103A680001335EF828ECBEF804E0E64538BF40466E
:103A7800B9F808E0BDF90C9002EB8909039A59F8E6
:103A8800289CB9F80890F14538BF42460392079A36
:103A9800C2EB0C0C049A62440492089AC2EB0E0E14
:103AA800059A0FFA83FC72440FFA8AFEF4450592D0
:103AB800AADB16AA00B209B202EB810102EB800070
:103AC800BDF90C2050F8280C16AB0DF158083FB280
:103AD80003EB870708EB820257F8283C52F8282C9A
:103AE80051F8287CB3F802C08088F9881289A5F8B3
:103AF80002C0E9804FF06408CCEB000C511AA88092
:103B08002A8108FB0CFC049A92FBFEF008FB01F1E9
:103B18009CFBF0FC059A92FBFEFE91FBFEF18C45A6
:103B2800CCBF012100230DF13008C9BF00910093DB
:103B380020464146DEBF204641463B461FFA8AF2F0
:103B4800FFF79EFD204641460DF12E02FFF760FE6D
:103B5800BDF92E30012B4CDD052BC4BF0523ADF874
:103B68002E300021BDF82E300F4608B21AB290420E
:103B780009DA58F82120128802F0070242EAC7023F
:103B880097B20131F1E7013B9BB2002118B200283E
:103B980012DB0DF1580E0EEB8000013B50F828ECBB
:103BA800BEF8000000F0070040EAC101002089B219
:103BB800AEF800009BB2E9E78F4233BF16AB16ABF5
:103BC80003EB820203EB82022BBF29802F8052F87D
:103BD8002C1C0C9935BF52F82C2C0C9A20462046E8
:103BE800FFF702FDB4F87432688101330C35A4F88C
:103BF8007432069A013292B2CAE603F10A05A5F1B7
:103C08000A039E4220D994F88832032B04D135F850
:103C18000A3C072B0CD913E035F80A1C07290FD8E2
:103C2800022B0DD02046C9B202F0DDF9012807D0D9
:103C38000A35E4E7204639462A46FFF718FE97E694
:103C4800002325F80A3CF3E717B0BDE8F08F38B534
:103C580000F5D27400F51A75204605F0A3FC20463D
:103C68001C3405F0E4FCAC42F6D138BD2DE9F04F28
:103C780089B000230646ADF81830ADF81E30ADF80F
:103C88001A30ADF81C301A469A464FF0FF38D6F86D
:103C9800A001059306A9049203F0BCFF049A059BB2
:103CA8000028F4D0BDF818404FF6FD718C4200F2A0
:103CB800BD80002BEBDB54BB7AB103991FFA8BF064
:103CC8000131091A431E89B200919BB2D1B2304624
:103CD8001FFA88F2FFF713F90346BAF1050F08F146
:103CE80001080AF1010205D0924600224FF6FF753D
:103CF8001746CCE7554A04931068012101F0EEFC01
:103D080000224FF6FF7517469246049BBFE704F062
:103D18000709B9F1010F02D1B8F1A90FB7DDBDF854
:103D28001A000490BDF81E00BDF91C1000284FEAC7
:103D3800C13108BF012009F1FF3E91FBF0FC1421BD
:103D480001FB0E6E0EF1E0010591DEF8E010614511
:103D580021DA059949688C451DDABDF910100EF174
:103D6800E80CDEF8E8E0C90391FBF0F18E4512DAC1
:103D7800DCF804E071450EDAD6F86C1188420ADBEB
:103D8800E410611B1FFA84FC0529ADF818C01CD883
:103D98004F451AD114E0002A3FF479AF03991FFA6E
:103DA8008BF00131091A431E89B200919BB2D1B23E
:103DB80030461FFA88F2FFF7A2F80346002266E7AA
:103DC8005ABB77BB3A46AB462EE072B90CF1FF33CB
:103DD800022200929BB2304649461FFA88F2FFF74A
:103DE8008EF8034625464F46E8E700250399CDF8A7
:103DF80010C01FFA8BF00131091A431E89B20091D5
:103E08009BB2D1B230461FFA88F2FFF778F8DDF896
:103E180010C00346002DE5D1D8E74A4502D0012558
:103E2800E4E7AB463A460394254630E73046FFF7C9
:103E38000EFFBDF818304FF6FE7083424FF0FF308A
:103E480018BF002009B0BDE8F08F00BF0491011031
:103E58002DE9F74F0446FFF709FF002811DA04F5AA
:103E6800D27504F51A7628461C3505F016FCB542BD
:103E7800F9D10023A4F86C32A4F874324FF0FF3063
:103E8800B6E00025012684F87662C4F88C52A4F8BE
:103E98006C52A4F8745294F88832022B07D020464A
:103EA800F1B202F0A0F8431E5842584100E0012048
:103EB800B4F86C82D4F8682208EB880301931C23B9
:103EC80003FB0643019FD3F898314FF00009DBB399
:103ED800B4F86CC2B4F878E2F44535D2B4F87AE2B2
:103EE800F14531D2D3F820E018B1BEF1090F27DD32
:103EF80003E0D4F880128E4522DBB3F804C0B3F88F
:103F080012A0B3F810B0998ACCF3C80C1FFA8CFE33
:103F1800CAEB0E0EBEF1010F12DD02EB470E22F8BE
:103F28001760AEF802B0AEF80410AEF806A0AEF80E
:103F380008C0B4F86CE20EF1010EA4F86CE2053783
:103F48001B6809F10109C2E778B9019B02EB430735
:103F5800B4F86C22C8EB02022046394692B2FFF749
:103F6800B1F910B10544ADB2F2E70136082E92D18D
:103F78002046D4F86812B4F86C22FFF754F994F884
:103F88008832284485B283B3B4F86C22D4F86832F6
:103F98000A2101FB0233C4F870322046FFF77DFC8A
:103FA80065B12046D4F86812B4F86C22FFF718F906
:103FB800B4F86C32181AA4F86C0203E094F888324A
:103FC800002BEED10023A4F87C32A4F87E3284F8CA
:103FD800763204F5D27504F51A7428461C3505F0B6
:103FE8005CFBA542F9D1002002E0002DEAD0D8E719
:103FF80003B0BDE8F08FFF2928BFFF21FF2A28BFA3
:10400800FF22FF2842EA012228BFFF2042EA00409F
:10401800704710B5C4B21C60C0F30723C0F3074053
:104028001360086010BD00007FB503A904AA05ABA2
:10403800FFF7EFFF049B039A9FED1B7A934238BF6B
:104048001346059A934238BF134607EE903AF8EEA6
:10405800677A06EE102AC7EE277A9DED037AF8EE06
:10406800476A9DED047AB8EE477A67EEA66AB8EE1D
:10407800466A27EE877AFCEEE66A67EE867ABCEE39
:10408800C77ACDED016AFCEEE77A9DF804008DED64
:10409800017A9DF80410CDED017A9DF8042007B04F
:1040A8005DF804EBFFF7A7BF00007F43014B1878CA
:1040B800704700BF6D800110014B1878704700BF32
:1040C8006A800110014B1878704700BF6B8001109F
:1040D800014B1878704700BF6C800110014B1878AD
:1040E800704700BFB490011038B5094D0121286808
:1040F80004F050F802210402286804F04BF8204329
:1041080004020521286804F045F8204338BD00BFA3
:10411800C890011038B5094D1621286804F03AF8FE
:1041280010210402286804F035F820430402002115
:10413800286804F02FF8204338BD00BFC89001104C
:1041480008B5034B0178186804F024F808BD00BFCF
:10415800C890011038B50468094DE2B228680521F5
:1041680004F002F82868C4F30722022103F0FCFFD8
:1041780028680121C4F3074203F0F6FF002038BD88
:10418800C890011038B50468094DE2B228680021CA
:1041980003F0EAFF2868C4F30722102103F0E4FFC4
:1041A80028681621C4F3074203F0DEFF002038BD5B
:1041B800C890011038B504460A4D22782868242191
:1041C80003F0D2FF22782868142A86BF143AD2B2A4
:1041D8000022252103F0C8FF034B22781A70002023
:1041E80038BD00BFC89001106C8001102DE9F34163
:1041F800134C0746884620680921102203F0B4FFB3
:104208000025454510DA7E19795D2068727803F03B
:10421800ABFF795D206803F0BDFF737883421CBF54
:10422800002301930235ECE720680921002203F0FE
:104238009BFF0448FFF7BEFF02B0BDE8F08100BF56
:10424800C89001106C8001102DE9F041294C0746F7
:104258001321206803F09EFF03210546206803F020
:1042680099FF254A3B78117899420646904636D000
:10427800A3B92068132105F0F70203F075FF206841
:10428800032106F07F0203F06FFF20680E21402211
:1042980003F06AFF2068212103221EE0012B15D1BB
:1042A8002068132105F0F70203F05EFF66F07F0235
:1042B80020680321D2B203F057FF20680E2148225C
:1042C80003F052FF20682121332206E0022B0CD193
:1042D80045F0080220681321D2B203F045FF3B786D
:1042E80088F800300020BDE8F0814FF0FF30BDE8CD
:1042F800F08100BFC8900110B490011038B50B4C84
:1043080005469721206803F045FF2B7802462BB11C
:1043180040F00A0297212068D2B203E02068972172
:1043280002F0F50203F020FF002038BDC89001100C
:1043380008B503780A7803490868194603F014FF9A
:10434800002008BDC890011070B50F4E057833786D
:10435800AB4217D00D4C382120684DB92A4603F0DE
:1043680003FF20689621E12203F0FEFE357009E084
:10437800102203F0F9FE20689621F12203F0F4FEE2
:1043880001233370002070BD6A800110C8900110AD
:1043980038B50A4C05782378AB420DD0084B132169
:1043A800186825B9A02203F0DFFE257004E0A522D5
:1043B80003F0DAFE01232370002038BD6B80011062
:1043C800C890011038B50A4D04782B78A34209D05B
:1043D8000CB9084802E0012C06D107481E21FFF756
:1043E80005FF2C70002038BD4FF0FF3038BD00BFEE
:1043F8006D800110105601102E56011038B50C466C
:104408001549054609F060F820B92046BDE838404E
:10441800FFF7D0BE2846114909F056F850B923785D
:104428001BB9FFF777FE0E4B18602046BDE83840F1
:10443800FFF7AEBF28460B4909F046F850B9237874
:104448001BB9FFF751FE084B18602046BDE83840FD
:10445800FFF77ABF38BD00BF4C5601105E560110F9
:10446800C490011077560110C09001102DE9F04357
:1044780093B09846BDF86C50BDF87040BDF86870B0
:1044880004FB05F306468B424FF0FF30914611902E
:104498004CD8131108D108EB0503B3F5A06F4ADC1B
:1044A8003B19B3F5487F13E0012B08D108EB05034E
:1044B800B3F5207F3FDC3B19B3F5C87F08E0022B3A
:1044C80037D108EB0503B3F5A07F34DC3B19C82BC3
:1044D80031DC12A809F00F0300F8053DFFF772FF61
:1044E800002828DB154BB3F90020CDF800900423F1
:1044F8000221019311AB03910591079109910C9346
:1045080000210F4B0296CDF81080069708950A9463
:104518000B910D910E911868012301F012F8119872
:1045280048B9084B1E609D80DC8004E06FF00100F4
:1045380001E06FF0020013B0BDE8F083688001105D
:1045480008910110B89001102DE9F0478AB0824611
:10455800129D2048204F1E468946904641211A88C0
:104568002B8806938DE803009DF850100291534361
:104578000221039105910893B12100230492079128
:104588000993394613984FF49032642300F0E7FCFE
:10459800B8F80010009131880191044629889AF8EA
:1045A8000020B9F80030029100F18050C4F5903134
:1045B80000F50020FFF75AFF33882A8880463946DD
:1045C800139802FB034200F090F940460AB0BDE898
:1045D800F08700BF42413831000008101FB5069C23
:1045E8000094079C019401240294FFF7ADFF04B0E6
:1045F80010BD000030B5502387B000248DE81800A6
:10460800474A484801234FF48071012502F080FD94
:104618004549444802F076FE444A01942B4640F24C
:1046280002210095424802F073FD3F49404802F0DC
:1046380069FE0094019429463E4A3F48042302F04B
:1046480067FD3E4A00942B46019440F202213C4803
:1046580002F05EFD34493A4802F054FE394A0194AA
:104668002B4640F202210095374802F051FD2E49B1
:10467800354802F047FE04230094019429462D4A48
:10468800324802F045FD224603A9264802F018FDEB
:1046980022460DF10D01264802F012FD22460DF1C9
:1046A8000E01274802F00CFD22460DF10F012648A5
:1046B80002F006FD03A8FFF77DFD0DF10D00FFF7E1
:1046C80067FE9DF80D407CB9214D1B482A682AB128
:1046D8000421234602F0F2FD2C6005E004A902F053
:1046E800EFFC04A8FFF74EFD0DF10E00FFF72CFEBE
:1046F8009DF80E3093B99DF80F407CB9154D1348BD
:104708002A682AB10421234602F0D8FD2C6005E06E
:1047180005A902F0D5FC05A8FFF71CFD07B030BDC0
:104728008A5601104C5601107D410010FB560110AD
:104738005E56011068660110425701104C5701106F
:1047480077560110DC570110BD5701105E58011053
:10475800C4900110C090011013B50420FCF73EFE70
:104768006021044603F0BAFC134B2046A0211C60CC
:1047780003F010FD28211148FFF738FD02A8002496
:1047880000F8014DFFF71EFE0D4B0E49186800F0AA
:1047980040F90D4B0D491868224600F0DFFE0C4B1E
:1047A800A042188003DBFFF725FF204601E04FF009
:1047B800FF3002B010BD00BFC89001103862011070
:1047C800049101107060011008910110385E011009
:1047D80068800110024B00221A60DA809A807047C4
:1047E800B890011070470020704710B5002393421D
:1047F80003DACC5CC4540133F9E710BD90F83B00F0
:104808007047836813B14360002383607047F0B535
:10481800002351F8232004689E008F19002A32D003
:10482800092B30DC251D12F8012C0560256815B907
:104838006FF00200F0BD12F0800F12D102F00F02EB
:10484800012A03D18A5912782A701AE0022A03D160
:104858008A5912882A8014E0042AE9D18A591268F0
:1048680002E0A12A8A5901D12A600AE012682A6066
:1048780004F10802026062680133002AD8D07C681B
:1048880014600133C5E7231D036020680028CFD1D9
:10489800F0BDF8B590F83B3005460E4617460BB903
:1048A8008A061FD5EC681CB9330605D40020F8BD6C
:1048B8004FF0FF30002401E04FF0FF3095F8393019
:1048C8009C4209DA2B682846DB6831463A46984705
:1048D8000028EBD00134F1E7002805DA002385F839
:1048E8003B30F8BD6FF00500F8BD38B50446806868
:1048F800636810B9A360616001E099420FD1236A2F
:10490800D21AE26094F83A2062B918212046FFF7DB
:10491800C0FF05462046FFF774FF284638BD6FF0F4
:10492800040038BD002038BDF8B5858E0E494035E5
:104938002F01044638460CF03FFA064688B100219C
:104948003A4608F00BFDA28E216B3046120108F0A2
:104958006BFC206B08B1FCF747FD2663A586002099
:10496800F8BD6FF00400F8BDE47A0110F8B506460A
:104978000F460025ACB2B28E23B2934209DA1B016E
:10498800326BD05818B1394608F09EFD20B1013578
:10499800F0E74FF6FF7000E0204600B2F8BDF8B52A
:1049A80004460D46164605B320462946FFF7DEFFA6
:1049B800002813DAB4F834E00027B8B203B273451C
:1049C80005DB73450AD12046FFF7AEFFEBE71A0176
:1049D800216B8A580137002AEFD1F2E7226B03B224
:1049E8001B01D118D5504E6001E04FF6FF7000B2A0
:1049F800F8BD38B505461C46FFF7D1FF0028A1BF12
:104A08002A6B02EB0010C4600020B8BF4FF0FF30E3
:104A180038BD38B5054601F1080454F8081C39B109
:104A280054F8042C23462846FFF7E3FF1834F4E72C
:104A3800084638BD418570478184704738B50446BB
:104A48001546FFF793FF236B2A8803EB00131A819F
:104A580038BD0000437E70B5054613B16FF0040001
:104A680070BD11B94469803401E001F18004204629
:104A780008490CF0A1F906460028EFD069686A6970
:104A880008F0D2FB686808B1FCF7AEFC6E606C6198
:104A9800002070BDE47A01102DE9F04F8A4685B0F8
:104AA8001F46054640B190F83A30006A13B100F14C
:104AB800040802E0804600E080460123C8EB0209B2
:104AC80001933B6893F800B01A1D3A60BBF1000FE0
:104AD80000F0DE800BF0BF02012A08F101040AEBA6
:104AE80008060AF808B008D13A68111D126839603A
:104AF80008F102060AF80420B0E0022A12D13A6846
:104B0800E60748BF24F0010402F1040148BF02345B
:104B180039600AEB0401128801F801BCA61C2AF8C6
:104B280004209BE0042A02D0BBF1640F11D13A683B
:104B3800A00718BF24F0030402F1040118BF0434CD
:104B480039600AEB0401126801F801BC4AF8042034
:104B580016E0142A16D13A68073222F0070202F149
:104B680008013960D2E9000107F02CFDA1071CBF3C
:104B780024F0030404340AEB040202F801BC1060B8
:104B8800261D6BE0A12A23D13A68111D39601368EC
:104B98000293184608F062FE421C1619A9F1080192
:104BA8008E420FD915B96FF0040075E028463146DA
:104BB8000392FFF74FFF00286EDBD5F804A0D5F865
:104BC8001490039A02990AEB040008F02DFB45E0C3
:104BD80012065FD53968081D386008680BF0300187
:104BE80030290BF00F0201BF00230BF08F0B86F862
:104BF80000B00193A3071CBF24F0030404340AEB9C
:104C08000401261D01F801BC511E0E4218BF514275
:104C1800019B4AF804001CBF0E40B618F3B100FB14
:104C280002F3F418A9F1080294420DD90293002D59
:104C3800B9D028462146FFF70DFF00282CDBD5F810
:104C480004A0D5F81490029B3A68111D39600AEB4C
:104C5800060011681A4608F0E7FA26462DB1AA7E22
:104C68001AB91BF0400F18BF4646A9F108039E4227
:104C780001D8B04625E7002D95D028463146FFF7E4
:104C8800E9FE002808DBD5F804A0D5F81490F0E771
:104C9800404601E06FF0020005B0BDE8F08F0B461A
:104CA80010B5416842690446FFF7F6FE0028A1BF27
:104CB800236AC01AE060002010BD0EB4F3B59DF859
:104CC8001C5090F83A60C768182D08BF002302A945
:104CD80008BF80F83A3008AB41F8043D0446FFF7B6
:104CE800DEFF182D03D094F83A3033B928B920469E
:104CF80018210022FFF7CDFDE76084F83A6002B082
:104D0800BDE8F04003B070472DE9F3410D88036812
:104D1800003518BF01250E46044629461B689046F3
:104D28009847338884F83B50E38698F8003000337E
:104D380018BF012300210746A3760091E37E019165
:104D480020460122FFF7B9FF384602B0BDE8F081DE
:104D580070B5B1F90020838E056B88B000249A42A3
:104D680006468DF81F4012DA1301E918EB5873B1A3
:104D7800C96861B1A122009201910292C9680391A8
:104D8800049405942146FFF798FF204610E00DF1A2
:104D98001F010191039113010021A12200920292A7
:104DA800049105913046EB58FFF787FF4FF0FF302D
:104DB80008B070BD2DE9F04190460422C26001F0B0
:104DC800200288B004460F4602F0FF05BAB101225E
:104DD800A02980F83A2004D193E80600FFF72EFEB8
:104DE8009BE0A12904D193E80600FFF78DFF94E02A
:104DF800A22940F090801968FFF7AAFF8DE01829D2
:104E080004D102681946926890479FE0828E9045C7
:104E180080F29E80B8F1000FC0F29A80026B02EB1C
:104E280008125668002E00F093802846C2B201305E
:104E380053F822100029F9D1012184F83A1012B947
:104E48002046B04769E0012A03D118682146B047D7
:104E580063E0022A04D193E803002246B0475CE0ED
:104E6800032A04D193E807002346B04755E0042AF3
:104E780003D100940FCBB0474FE0052A05D11A693A
:104E88008DE814000FCBB04747E0062A07D11A690E
:104E980000925A69019202940FCBB0473DE0072A6D
:104EA80009D11A6900925A6901929A690292039487
:104EB8000FCBB04731E0082A0BD11A6900925A6922
:104EC80001929A690292DA69039204940FCBB0476F
:104ED80023E0092A0DD11A6900925A6901929A6948
:104EE8000292DA6903921A6A049205940FCBB047CA
:104EF80013E00A2A0FD11A6900925A6901929A6935
:104F08000292DA6903921A6A04925A6A059206941E
:104F18000FCBB04701E04FF0FF300023FFB284F819
:104F28003A303B0617D56268236AD050236B03EBEF
:104F3800081307F03F01204641F04001B3F908206B
:104F4800FFF7A7FC05462046FFF75BFC284603E071
:104F58004FF0FF3000E0002008B0BDE8F0810CB44D
:104F680013B504AC02AB54F8042B43F8044DFFF717
:104F780093FD02B0BDE8104002B070472DE9F84338
:104F880007468846154602F10A0916460024731B8F
:104F98004445DBB22CD24E452ED03A5D06F8012BA3
:104FA800110604F1010002F00F0307D45A1E024251
:104FB8001EBF5A421040C018C418E8E702F0BF02EA
:104FC800A12A05D1384408F049FC02340444DEE73C
:104FD80082071CBF20F0030004305A1E3C580430DE
:104FE80010421EBF5A421040C01803FB0404CEE70B
:104FF8000020E854BDE8F8834FF0FF30BDE8F8839F
:105008002DE9F8434FF0000905460F461646C846F5
:10501800B94546D2B8F10A0F4AD015F8094014F03C
:10502800800F09F1010004F00F020FFA88F10BD18B
:10503800531E03421EBF5442204080182B1846F8C6
:10504800213000EB020927E004F0BF04A12C08D1AD
:10505800284446F8210008F001FC09F102098144BE
:105068001AE083071CBF20F00300043005EB000E94
:105078002C5846F821E00430511E08421CBF51420A
:10508800084008F10103DBB218BF8018291846F858
:10509800231002FB0409984608F101035FFA83F81C
:1050A800B6E70FFA88F3002046F82300BDE8F88336
:1050B8004FF0FF30BDE8F88310B58CB0144601AA54
:1050C800FFF79EFF002803DB204601A9FFF79FFB9F
:1050D8000CB010BD10B542180023904204D010F84F
:1050E800014B23449BB2F8E7581880B210BD00006A
:1050F80038B5436804461971104818606168E06A59
:10510800E3688B600368CA801D68638D4022A847E6
:10511800002812DB226AE3681A44402A0CD9637E0D
:1051280053B9E06A6168036840311D68638D403A8D
:10513800A84700EAE07038BD002038BD5555AAAA36
:1051480013B5034609B1592200E09522D86A8DF8B3
:10515800072002685B8D14680DF107010122A04742
:105168000028B4BF6FF06500002002B010BD000039
:105178002DE9F3410446C06A174602688846556817
:1051880003B1A38C0DF105010122A847051E62DBBE
:1051980002D14FF0FF355EE000269DF80530E06A49
:1051A8001B0643EA16262E4B02689E42238D08D022
:1051B80055680DF105010122A847051E4BDBECD10E
:1051C800E7E756686168226AB047002841DB236A2E
:1051D8009D42DEDB63681B7888F8003065686B8861
:1051E8003B80276A6E68E66039462846FFF772FFFB
:1051F800C7F140078046E06ABE4228BF3E460368C2
:10520800B71CD3F804C0238D29463A46E047051E4B
:1052180021DBBD42BDDB61680DF10600314402228D
:10522800FFF7E3FA60683146FFF754FFBDF8063030
:105238004044834206D1266120460121FFF780FFC2
:10524800002508E020460021FFF77AFF6FF00105EE
:1052580001E06FF06405284602B0BDE8F08100BFA8
:105268005555AAAA2DE9F8430446894690461D4695
:10527800E06A616803685E680DB1A38C00E02B46A4
:105288004022B047071E1CDB032FF1DD63681B4A71
:1052980019689142ECD11B7989F800306368DA8883
:1052A8009968236AA8F80020E16019446369994263
:1052B8003E4609D92046FFF7CDFB002804DABDE8B1
:1052C800F8833846BDE8F883256AE3681D44BD4283
:1052D80001D9637E6BB10020BDE8F883E06A61689C
:1052E800036831445F68238DAA1BB847002803DB95
:1052F8000644AE42F2D3EEE7BDE8F8835555AAAAB4
:105308002DE9F74F036AC16819444369033199428B
:10531800044605D9FFF79EFB061E01DA304656E023
:105328000027B8462369E568AB4246D2E28EE06AB8
:105338006168ED1A954228BF154602681944D2F8EB
:1053480004C0E38CEA1CE047002838DBAB1CB342FE
:1053580038DA236961682B440DF1060011F803A0BF
:10536800013319440222FFF740FAD4F8109060681C
:10537800BDF806B04844691CFFF7ACFE83450FD161
:10538800D04502BF4D4408F10108256120464FF081
:10539800010108BF5FFA88F80027FFF7D1FEC1E7CF
:1053A80020460021FFF7CCFE7B1C94F83820DBB2A6
:1053B8009A420AD90237FFB2B4E7002007E06FF03B
:1053C800640004E04FF0FF3001E06FF0030003B029
:1053D800BDE8F08F2DE9F84304460F4690461D4678
:1053E8009DF82090FFF70DFA267E3EB120463946FB
:1053F80042464B46FFF736FF16E001364B4620463D
:1054080039464246FFF7B4FE831C07D194F838307A
:105418009E42F2D36FF00300BDE8F88308B1BDE8FF
:10542800F8832046FFF76CFFD8B93B78206A13F061
:10543800400F0ED063681844042200F8042C6168F9
:10544800236A0B4403F8012CE368206A13440438E8
:10545800E3606368E16818442A46BDE8F843FFF74B
:10546800CFBDBDE8F8832DE9F0414FB290B0002FD1
:1054780004460D469046049303DB90F83B30002B1E
:105488005AD000262046E660FFF7BBF9204604A95B
:10549800FFF705FC002851DB002FAABF80238DF8F9
:1054A8000D508DF80D3020469DF80D104246B8BFBE
:1054B8003546FFF7EEF9002840D1E9073AD4E06A0B
:1054C80003689B689847012305AE009320460DF1B9
:1054D8000D010DF10E023346FFF77CFF70BB9DF8FE
:1054E8000D104A0610D42368BDF90E205F682046C7
:1054F8003346B847E06A0368DB689847A38C98424C
:10550800E1D96FF0640019E0AB070DD5049B1A1DB3
:1055180004921A68002AF9D0002356F8231042F89A
:10552800231039B10133F8E704A83146FFF76FF9C2
:10553800002803DB002001E06FF0050010B0BDE893
:10554800F0810CB407B504AB33F9042B0193FFF7D2
:105558008AFF03B05DF804EB02B0704730B504462B
:1055680089B00D4612B1FFF71AFA01E04FF6FF7045
:1055780002230022019300B207AB02900493009526
:10558800039205922046A021A123FFF7DAFF002805
:10559800ACBFBDF81C004FF6FF7000B209B030BDBB
:1055A80030B504468BB00D4609B1C38E00E00B46FA
:1055B800009301230193E37E029309AB0022049335
:1055C8000DF123030593039206922046A12102239D
:1055D800FFF7B7FF002808DB9DF82330099884F807
:1055E8003B50003318BF0123A3760BB030BD000039
:1055F8000B6810B5C16204461B690846002198472C
:10560800C0F340002076E06A036800211B699847D0
:1056180000F001006076E06A03685B699847237EC2
:10562800E0860BB10C2300E008232362637E63B19C
:10563800E06A036801211B6998476060E06A0368B3
:1056480002211B699847606105E080206061064976
:105658000BF0B2FB6060207F28B120460121BDE835
:105668001040FFF79DBF10BDE47A011070B51E46CB
:10567800184B03600446032380F8383080F839302B
:1056880000254FF47A738384C562057645764560B4
:1056980085604FF4FA7063854023E0842085E176C5
:1056A80022770D4984F83A5084F83B50A576A386B2
:1056B8004FF480600BF080FBA28E20632946120114
:1056C80007F04CFE1EB120463146FFF791FF2046F9
:1056D80070BD00BF68620110E47A0110F0B505469C
:1056E8008FB00E4600240023009328460DF10901CF
:1056F8000DF10A0203ABFFF76DFE58B92B689DF850
:1057080009105F68BDF90A20284603ABB8470EB1F7
:105718000134E8E720460FB0F0BD37B5C06A13463C
:1057280002680C4655680DF107010122A8470028B8
:105738000ADB0CD09DF80730592B4FF0000006BF4C
:1057480001232370207004E06FF0640001E04FF043
:10575800FF3003B030BD0000F7B504460E46C06AFE
:105768002A4B02A9154641F8043D036804221F6824
:10577800638DB847002846DB63681E706168E06A7D
:10578800E3684B6003684D80226A1D68638DA847F3
:10579800002838DB6668216A3046FFF79BFCE5681D
:1057A800ADF80200E06A402D036828BF40251F6855
:1057B800638D31462A46B847002802DA6FF0650043
:1057C80021E060682946FFF785FCBDF8023002A990
:1057D800184421F8060DE06A036802221E68638DEA
:1057E800B0470028EADB20460DF10101A28CFFF743
:1057F80094FF002807DB9DF8013013B125610020D4
:1058080001E06FF0010003B0F0BD00BF5555AAAA32
:1058180073B5002304468DF804302369E568AB426C
:1058280044D2E28EE06A6168ED1A954228BF1546B7
:10583800026819441668638D2A46B047002802DAC0
:105848006FF0650033E0E06A036801A91E68638DA4
:105858000122B0470028F3DB236960682946184411
:10586800FFF738FC0121064601A8FFF733FC02A91F
:10587800304421F8020DE06A036802221E68638D35
:10588800B0470028DCDB20460DF10501E28CFFF76C
:1058980044FF00280BDB9DF80530002BBDD02369A1
:1058A8001D449DF8043025610133B4E7002002B09F
:1058B80070BD037E70B504460E4615461BB1BDE8A3
:1058C8007040FFF715BC2A4620463146FFF744FFD3
:1058D800821CF8D020B92046BDE87040FFF798BF79
:1058E80070BD09B100230362C26982B1036A1168FD
:1058F800994220DD926802EB830132F8232049881F
:1059080002810133042241818281C2810362002322
:10591800436103614389B0F9041043F001039AB26B
:10592800038943F001039BB201FB0233026813446D
:105938008361012070470020704738B50023036059
:10594800C3808380C381838104464381038103C963
:1059580084E803001068516804F1080503C5E36191
:1059680020460121FFF7BDFF204638BD002310B5B2
:105978000360C38083800446C3818381438103819C
:1059880003C9E26184E8030020460121FFF7A9FF6B
:10599800204610BDF0B5838904699C420AD30023D0
:1059A80003614369B0F9044002334361836903EB3F
:1059B80044038361C38944699C4233D2866903697D
:1059C800F518F45C15F801CCB0F904505D1B16F815
:1059D80005E0354415F8013C2AB10CEB0E056D10B5
:1059E8001470557093700569C1B104EB0C071F441E
:1059F800252F02DC02350561CDE704EB0E061E44B7
:105A0800252EF7DDCCEB0404CEEB0303E403DB0324
:105A180094FBF7F493FBF6F30C604B6002350561D9
:105A28000120F0BD0020F0BDC36970B504460E46E4
:105A380015465BB1FFF7AEFF014658B92046FFF7A0
:105A480050FF014630B1204631462A46BDE8704035
:105A5800FFF7A0BF084670BD2DE9F743002488462C
:105A6800012181468DF806408DF805408DF80440E7
:105A7800FFF737FF2646254627464846002101AA54
:105A8800FFF7D2FF50B19DF804301F449DF8053050
:105A98001D449DF8063001341E44EEE7B7FBF4F7C9
:105AA800B5FBF4F5B6FBF4F0B8F1000F01D0C8F877
:105AB80000402D0245EA0745284303B0BDE8F083BE
:105AC8002DE9F74F002408468846012115469A46D5
